{
  "_format": "hh-sol-artifact-1",
  "contractName": "EscrowAgency",
  "sourceName": "contracts/EscrowAgency.sol",
  "abi": [
    {
      "inputs": [],
      "stateMutability": "nonpayable",
      "type": "constructor"
    },
    {
      "anonymous": false,
      "inputs": [
        {
          "indexed": false,
          "internalType": "address",
          "name": "seller",
          "type": "address"
        },
        {
          "indexed": false,
          "internalType": "address",
          "name": "buyer",
          "type": "address"
        },
        {
          "indexed": false,
          "internalType": "uint256",
          "name": "value",
          "type": "uint256"
        },
        {
          "indexed": false,
          "internalType": "uint256",
          "name": "createdAt",
          "type": "uint256"
        },
        {
          "indexed": false,
          "internalType": "uint256",
          "name": "cancelledAt",
          "type": "uint256"
        }
      ],
      "name": "EscrowCancelled",
      "type": "event"
    },
    {
      "anonymous": false,
      "inputs": [
        {
          "indexed": false,
          "internalType": "address",
          "name": "seller",
          "type": "address"
        },
        {
          "indexed": false,
          "internalType": "address",
          "name": "buyer",
          "type": "address"
        },
        {
          "indexed": false,
          "internalType": "uint256",
          "name": "value",
          "type": "uint256"
        },
        {
          "indexed": false,
          "internalType": "uint256",
          "name": "createdAt",
          "type": "uint256"
        }
      ],
      "name": "EscrowCreated",
      "type": "event"
    },
    {
      "anonymous": false,
      "inputs": [
        {
          "indexed": false,
          "internalType": "address",
          "name": "seller",
          "type": "address"
        },
        {
          "indexed": false,
          "internalType": "address",
          "name": "buyer",
          "type": "address"
        },
        {
          "indexed": false,
          "internalType": "uint256",
          "name": "value",
          "type": "uint256"
        },
        {
          "indexed": false,
          "internalType": "uint256",
          "name": "time",
          "type": "uint256"
        }
      ],
      "name": "GoodsDelivered",
      "type": "event"
    },
    {
      "inputs": [],
      "name": "agent",
      "outputs": [
        {
          "internalType": "address",
          "name": "",
          "type": "address"
        }
      ],
      "stateMutability": "view",
      "type": "function"
    },
    {
      "inputs": [
        {
          "internalType": "address",
          "name": "",
          "type": "address"
        },
        {
          "internalType": "uint256",
          "name": "",
          "type": "uint256"
        }
      ],
      "name": "buyerEscrows",
      "outputs": [
        {
          "internalType": "uint256",
          "name": "",
          "type": "uint256"
        }
      ],
      "stateMutability": "view",
      "type": "function"
    },
    {
      "inputs": [
        {
          "internalType": "uint256",
          "name": "escrowId",
          "type": "uint256"
        }
      ],
      "name": "buyerWithdraw",
      "outputs": [],
      "stateMutability": "nonpayable",
      "type": "function"
    },
    {
      "inputs": [
        {
          "internalType": "address",
          "name": "",
          "type": "address"
        }
      ],
      "name": "buyers",
      "outputs": [
        {
          "internalType": "address payable",
          "name": "id",
          "type": "address"
        },
        {
          "internalType": "string",
          "name": "name",
          "type": "string"
        },
        {
          "internalType": "string",
          "name": "email",
          "type": "string"
        }
      ],
      "stateMutability": "view",
      "type": "function"
    },
    {
      "inputs": [],
      "name": "buyersCount",
      "outputs": [
        {
          "internalType": "uint256",
          "name": "_value",
          "type": "uint256"
        }
      ],
      "stateMutability": "view",
      "type": "function"
    },
    {
      "inputs": [
        {
          "internalType": "uint256",
          "name": "",
          "type": "uint256"
        }
      ],
      "name": "buyersCountToAddress",
      "outputs": [
        {
          "internalType": "address",
          "name": "",
          "type": "address"
        }
      ],
      "stateMutability": "view",
      "type": "function"
    },
    {
      "inputs": [
        {
          "internalType": "uint256",
          "name": "escrowId",
          "type": "uint256"
        }
      ],
      "name": "cancelEscrow",
      "outputs": [],
      "stateMutability": "nonpayable",
      "type": "function"
    },
    {
      "inputs": [],
      "name": "commission",
      "outputs": [
        {
          "internalType": "uint256",
          "name": "",
          "type": "uint256"
        }
      ],
      "stateMutability": "view",
      "type": "function"
    },
    {
      "inputs": [
        {
          "internalType": "uint256",
          "name": "escrowId",
          "type": "uint256"
        }
      ],
      "name": "confirmDelivery",
      "outputs": [],
      "stateMutability": "nonpayable",
      "type": "function"
    },
    {
      "inputs": [
        {
          "internalType": "uint256",
          "name": "",
          "type": "uint256"
        }
      ],
      "name": "escrows",
      "outputs": [
        {
          "internalType": "uint256",
          "name": "id",
          "type": "uint256"
        },
        {
          "internalType": "address",
          "name": "seller",
          "type": "address"
        },
        {
          "internalType": "address",
          "name": "buyer",
          "type": "address"
        },
        {
          "internalType": "uint256",
          "name": "value",
          "type": "uint256"
        },
        {
          "internalType": "uint256",
          "name": "createdAt",
          "type": "uint256"
        },
        {
          "internalType": "uint256",
          "name": "expiryTime",
          "type": "uint256"
        },
        {
          "internalType": "enum EscrowAgency.Status",
          "name": "status",
          "type": "uint8"
        }
      ],
      "stateMutability": "view",
      "type": "function"
    },
    {
      "inputs": [],
      "name": "escrowsCount",
      "outputs": [
        {
          "internalType": "uint256",
          "name": "_value",
          "type": "uint256"
        }
      ],
      "stateMutability": "view",
      "type": "function"
    },
    {
      "inputs": [],
      "name": "getAllBuyers",
      "outputs": [
        {
          "components": [
            {
              "internalType": "address payable",
              "name": "id",
              "type": "address"
            },
            {
              "internalType": "string",
              "name": "name",
              "type": "string"
            },
            {
              "internalType": "string",
              "name": "email",
              "type": "string"
            }
          ],
          "internalType": "struct EscrowAgency.Buyer[]",
          "name": "",
          "type": "tuple[]"
        }
      ],
      "stateMutability": "view",
      "type": "function"
    },
    {
      "inputs": [],
      "name": "getAllSellers",
      "outputs": [
        {
          "components": [
            {
              "internalType": "address payable",
              "name": "id",
              "type": "address"
            },
            {
              "internalType": "string",
              "name": "name",
              "type": "string"
            },
            {
              "internalType": "string",
              "name": "email",
              "type": "string"
            }
          ],
          "internalType": "struct EscrowAgency.Seller[]",
          "name": "",
          "type": "tuple[]"
        }
      ],
      "stateMutability": "view",
      "type": "function"
    },
    {
      "inputs": [
        {
          "internalType": "address",
          "name": "buyer",
          "type": "address"
        }
      ],
      "name": "getBuyerDetails",
      "outputs": [
        {
          "components": [
            {
              "internalType": "address payable",
              "name": "id",
              "type": "address"
            },
            {
              "internalType": "string",
              "name": "name",
              "type": "string"
            },
            {
              "internalType": "string",
              "name": "email",
              "type": "string"
            }
          ],
          "internalType": "struct EscrowAgency.Buyer",
          "name": "",
          "type": "tuple"
        }
      ],
      "stateMutability": "view",
      "type": "function"
    },
    {
      "inputs": [
        {
          "internalType": "uint256",
          "name": "id",
          "type": "uint256"
        }
      ],
      "name": "getEscrowById",
      "outputs": [
        {
          "components": [
            {
              "internalType": "uint256",
              "name": "id",
              "type": "uint256"
            },
            {
              "internalType": "address",
              "name": "seller",
              "type": "address"
            },
            {
              "internalType": "address",
              "name": "buyer",
              "type": "address"
            },
            {
              "internalType": "uint256",
              "name": "value",
              "type": "uint256"
            },
            {
              "internalType": "uint256",
              "name": "createdAt",
              "type": "uint256"
            },
            {
              "internalType": "uint256",
              "name": "expiryTime",
              "type": "uint256"
            },
            {
              "internalType": "enum EscrowAgency.Status",
              "name": "status",
              "type": "uint8"
            }
          ],
          "internalType": "struct EscrowAgency.Escrow",
          "name": "",
          "type": "tuple"
        }
      ],
      "stateMutability": "view",
      "type": "function"
    },
    {
      "inputs": [
        {
          "internalType": "address",
          "name": "buyer",
          "type": "address"
        }
      ],
      "name": "getEscrowsByBuyer",
      "outputs": [
        {
          "components": [
            {
              "internalType": "uint256",
              "name": "id",
              "type": "uint256"
            },
            {
              "internalType": "address",
              "name": "seller",
              "type": "address"
            },
            {
              "internalType": "address",
              "name": "buyer",
              "type": "address"
            },
            {
              "internalType": "uint256",
              "name": "value",
              "type": "uint256"
            },
            {
              "internalType": "uint256",
              "name": "createdAt",
              "type": "uint256"
            },
            {
              "internalType": "uint256",
              "name": "expiryTime",
              "type": "uint256"
            },
            {
              "internalType": "enum EscrowAgency.Status",
              "name": "status",
              "type": "uint8"
            }
          ],
          "internalType": "struct EscrowAgency.Escrow[]",
          "name": "",
          "type": "tuple[]"
        }
      ],
      "stateMutability": "view",
      "type": "function"
    },
    {
      "inputs": [
        {
          "internalType": "address",
          "name": "seller",
          "type": "address"
        }
      ],
      "name": "getEscrowsBySeller",
      "outputs": [
        {
          "components": [
            {
              "internalType": "uint256",
              "name": "id",
              "type": "uint256"
            },
            {
              "internalType": "address",
              "name": "seller",
              "type": "address"
            },
            {
              "internalType": "address",
              "name": "buyer",
              "type": "address"
            },
            {
              "internalType": "uint256",
              "name": "value",
              "type": "uint256"
            },
            {
              "internalType": "uint256",
              "name": "createdAt",
              "type": "uint256"
            },
            {
              "internalType": "uint256",
              "name": "expiryTime",
              "type": "uint256"
            },
            {
              "internalType": "enum EscrowAgency.Status",
              "name": "status",
              "type": "uint8"
            }
          ],
          "internalType": "struct EscrowAgency.Escrow[]",
          "name": "",
          "type": "tuple[]"
        }
      ],
      "stateMutability": "view",
      "type": "function"
    },
    {
      "inputs": [
        {
          "internalType": "address",
          "name": "seller",
          "type": "address"
        }
      ],
      "name": "getSellerDetails",
      "outputs": [
        {
          "components": [
            {
              "internalType": "address payable",
              "name": "id",
              "type": "address"
            },
            {
              "internalType": "string",
              "name": "name",
              "type": "string"
            },
            {
              "internalType": "string",
              "name": "email",
              "type": "string"
            }
          ],
          "internalType": "struct EscrowAgency.Seller",
          "name": "",
          "type": "tuple"
        }
      ],
      "stateMutability": "view",
      "type": "function"
    },
    {
      "inputs": [
        {
          "internalType": "address payable",
          "name": "seller",
          "type": "address"
        },
        {
          "internalType": "uint256",
          "name": "expiryTime",
          "type": "uint256"
        }
      ],
      "name": "initiateEscrow",
      "outputs": [],
      "stateMutability": "payable",
      "type": "function"
    },
    {
      "inputs": [
        {
          "internalType": "string",
          "name": "name",
          "type": "string"
        },
        {
          "internalType": "string",
          "name": "email",
          "type": "string"
        }
      ],
      "name": "registerBuyer",
      "outputs": [],
      "stateMutability": "nonpayable",
      "type": "function"
    },
    {
      "inputs": [
        {
          "internalType": "string",
          "name": "name",
          "type": "string"
        },
        {
          "internalType": "string",
          "name": "email",
          "type": "string"
        }
      ],
      "name": "registerSeller",
      "outputs": [],
      "stateMutability": "nonpayable",
      "type": "function"
    },
    {
      "inputs": [
        {
          "internalType": "address",
          "name": "",
          "type": "address"
        },
        {
          "internalType": "uint256",
          "name": "",
          "type": "uint256"
        }
      ],
      "name": "sellerEscrows",
      "outputs": [
        {
          "internalType": "uint256",
          "name": "",
          "type": "uint256"
        }
      ],
      "stateMutability": "view",
      "type": "function"
    },
    {
      "inputs": [
        {
          "internalType": "uint256",
          "name": "escrowId",
          "type": "uint256"
        }
      ],
      "name": "sellerWithdraw",
      "outputs": [],
      "stateMutability": "nonpayable",
      "type": "function"
    },
    {
      "inputs": [
        {
          "internalType": "address",
          "name": "",
          "type": "address"
        }
      ],
      "name": "sellers",
      "outputs": [
        {
          "internalType": "address payable",
          "name": "id",
          "type": "address"
        },
        {
          "internalType": "string",
          "name": "name",
          "type": "string"
        },
        {
          "internalType": "string",
          "name": "email",
          "type": "string"
        }
      ],
      "stateMutability": "view",
      "type": "function"
    },
    {
      "inputs": [],
      "name": "sellersCount",
      "outputs": [
        {
          "internalType": "uint256",
          "name": "_value",
          "type": "uint256"
        }
      ],
      "stateMutability": "view",
      "type": "function"
    },
    {
      "inputs": [
        {
          "internalType": "uint256",
          "name": "",
          "type": "uint256"
        }
      ],
      "name": "sellersCountToAddress",
      "outputs": [
        {
          "internalType": "address",
          "name": "",
          "type": "address"
        }
      ],
      "stateMutability": "view",
      "type": "function"
    },
    {
      "inputs": [
        {
          "internalType": "uint256",
          "name": "_commission",
          "type": "uint256"
        }
      ],
      "name": "setCommission",
      "outputs": [],
      "stateMutability": "nonpayable",
      "type": "function"
    }
  ],
  "bytecode": "0x608060405234801561001057600080fd5b50600160008190555033600160006101000a81548173ffffffffffffffffffffffffffffffffffffffff021916908373ffffffffffffffffffffffffffffffffffffffff1602179055506003600281905550614c03806100716000396000f3fe60806040526004361061019c5760003560e01c8063864ae8cd116100ec578063b618387a1161008a578063e018243611610064578063e018243614610647578063e148919114610670578063f5ff5c761461069b578063fd84cb97146106c65761019c565b8063b618387a146105b6578063ba49a08c146105df578063caa68a511461060a5761019c565b80639ae9711e116100c65780639ae9711e146104fa5780639b269b8f14610525578063b03fd85a14610550578063b3c8fe85146105795761019c565b8063864ae8cd1461046757806386cba22b1461049057806397a993aa146104bb5761019c565b8063318fd93d116101595780636a2fc00b116101335780636a2fc00b146103925780636d47ab72146103cf57806370c951a51461040e5780637f11739c1461044b5761019c565b8063318fd93d14610303578063355e6b431461032c57806368cfe6ee146103555761019c565b8063012f52ee146101a15780631b5924cf146101e457806320ca04181461022157806327ec25491461025e578063287d93931461029b57806330059b6d146102d8575b600080fd5b3480156101ad57600080fd5b506101c860048036038101906101c39190613692565b6106ef565b6040516101db9796959493929190613786565b60405180910390f35b3480156101f057600080fd5b5061020b60048036038101906102069190613821565b61077e565b6040516102189190613861565b60405180910390f35b34801561022d57600080fd5b5061024860048036038101906102439190613692565b6107af565b6040516102559190613937565b60405180910390f35b34801561026a57600080fd5b5061028560048036038101906102809190613692565b610ad5565b6040516102929190613952565b60405180910390f35b3480156102a757600080fd5b506102c260048036038101906102bd9190613692565b610b08565b6040516102cf9190613952565b60405180910390f35b3480156102e457600080fd5b506102ed610b3b565b6040516102fa9190613861565b60405180910390f35b34801561030f57600080fd5b5061032a600480360381019061032591906139d2565b610b47565b005b34801561033857600080fd5b50610353600480360381019061034e9190613692565b610e05565b005b34801561036157600080fd5b5061037c60048036038101906103779190613a53565b610e69565b6040516103899190613b91565b60405180910390f35b34801561039e57600080fd5b506103b960048036038101906103b49190613a53565b61103c565b6040516103c69190613cf0565b60405180910390f35b3480156103db57600080fd5b506103f660048036038101906103f19190613a53565b611332565b60405161040593929190613d6b565b60405180910390f35b34801561041a57600080fd5b5061043560048036038101906104309190613821565b61148c565b6040516104429190613861565b60405180910390f35b61046560048036038101906104609190613ddc565b6114bd565b005b34801561047357600080fd5b5061048e60048036038101906104899190613692565b6119a2565b005b34801561049c57600080fd5b506104a5611db6565b6040516104b29190613f35565b60405180910390f35b3480156104c757600080fd5b506104e260048036038101906104dd9190613a53565b61206c565b6040516104f193929190613d6b565b60405180910390f35b34801561050657600080fd5b5061050f6121c6565b60405161051c9190613861565b60405180910390f35b34801561053157600080fd5b5061053a6121d2565b6040516105479190614070565b60405180910390f35b34801561055c57600080fd5b5061057760048036038101906105729190613692565b612488565b005b34801561058557600080fd5b506105a0600480360381019061059b9190613a53565b61280e565b6040516105ad91906140e9565b60405180910390f35b3480156105c257600080fd5b506105dd60048036038101906105d891906139d2565b6129e1565b005b3480156105eb57600080fd5b506105f4612c9f565b6040516106019190613861565b60405180910390f35b34801561061657600080fd5b50610631600480360381019061062c9190613a53565b612cab565b60405161063e9190613cf0565b60405180910390f35b34801561065357600080fd5b5061066e60048036038101906106699190613692565b612fa1565b005b34801561067c57600080fd5b50610685613277565b6040516106929190613861565b60405180910390f35b3480156106a757600080fd5b506106b061327d565b6040516106bd9190613952565b60405180910390f35b3480156106d257600080fd5b506106ed60048036038101906106e89190613692565b6132a3565b005b60096020528060005260406000206000915090508060000154908060010160009054906101000a900473ffffffffffffffffffffffffffffffffffffffff16908060020160009054906101000a900473ffffffffffffffffffffffffffffffffffffffff16908060030154908060040154908060050154908060060160009054906101000a900460ff16905087565b600c602052816000526040600020818154811061079a57600080fd5b90600052602060002001600091509150505481565b6107b76134c6565b60006009600084815260200190815260200160002090503373ffffffffffffffffffffffffffffffffffffffff168160020160009054906101000a900473ffffffffffffffffffffffffffffffffffffffff1673ffffffffffffffffffffffffffffffffffffffff16148061087b57503373ffffffffffffffffffffffffffffffffffffffff168160010160009054906101000a900473ffffffffffffffffffffffffffffffffffffffff1673ffffffffffffffffffffffffffffffffffffffff16145b806108f75750600160009054906101000a900473ffffffffffffffffffffffffffffffffffffffff1673ffffffffffffffffffffffffffffffffffffffff168160020160009054906101000a900473ffffffffffffffffffffffffffffffffffffffff1673ffffffffffffffffffffffffffffffffffffffff16145b806109735750600160009054906101000a900473ffffffffffffffffffffffffffffffffffffffff1673ffffffffffffffffffffffffffffffffffffffff168160010160009054906101000a900473ffffffffffffffffffffffffffffffffffffffff1673ffffffffffffffffffffffffffffffffffffffff16145b6109b2576040517f08c379a00000000000000000000000000000000000000000000000000000000081526004016109a990614157565b60405180910390fd5b806040518060e0016040529081600082015481526020016001820160009054906101000a900473ffffffffffffffffffffffffffffffffffffffff1673ffffffffffffffffffffffffffffffffffffffff1673ffffffffffffffffffffffffffffffffffffffff1681526020016002820160009054906101000a900473ffffffffffffffffffffffffffffffffffffffff1673ffffffffffffffffffffffffffffffffffffffff1673ffffffffffffffffffffffffffffffffffffffff1681526020016003820154815260200160048201548152602001600582015481526020016006820160009054906101000a900460ff166003811115610ab757610ab661370f565b5b6003811115610ac957610ac861370f565b5b81525050915050919050565b60056020528060005260406000206000915054906101000a900473ffffffffffffffffffffffffffffffffffffffff1681565b60086020528060005260406000206000915054906101000a900473ffffffffffffffffffffffffffffffffffffffff1681565b600a8060000154905081565b600073ffffffffffffffffffffffffffffffffffffffff16600360003373ffffffffffffffffffffffffffffffffffffffff1673ffffffffffffffffffffffffffffffffffffffff16815260200190815260200160002060000160009054906101000a900473ffffffffffffffffffffffffffffffffffffffff1673ffffffffffffffffffffffffffffffffffffffff1614610c18576040517f08c379a0000000000000000000000000000000000000000000000000000000008152600401610c0f906141e9565b60405180910390fd5b60405180606001604052803373ffffffffffffffffffffffffffffffffffffffff16815260200185858080601f016020809104026020016040519081016040528093929190818152602001838380828437600081840152601f19601f82011690508083019250505050505050815260200183838080601f016020809104026020016040519081016040528093929190818152602001838380828437600081840152601f19601f82011690508083019250505050505050815250600360003373ffffffffffffffffffffffffffffffffffffffff1673ffffffffffffffffffffffffffffffffffffffff16815260200190815260200160002060008201518160000160006101000a81548173ffffffffffffffffffffffffffffffffffffffff021916908373ffffffffffffffffffffffffffffffffffffffff1602179055506020820151816001019080519060200190610d73929190613541565b506040820151816002019080519060200190610d90929190613541565b50905050610d9e60046134a2565b6000610daa60046134b8565b9050336005600083815260200190815260200160002060006101000a81548173ffffffffffffffffffffffffffffffffffffffff021916908373ffffffffffffffffffffffffffffffffffffffff1602179055505050505050565b600160009054906101000a900473ffffffffffffffffffffffffffffffffffffffff1673ffffffffffffffffffffffffffffffffffffffff163373ffffffffffffffffffffffffffffffffffffffff1614610e5f57600080fd5b8060028190555050565b610e716135c7565b600660008373ffffffffffffffffffffffffffffffffffffffff1673ffffffffffffffffffffffffffffffffffffffff1681526020019081526020016000206040518060600160405290816000820160009054906101000a900473ffffffffffffffffffffffffffffffffffffffff1673ffffffffffffffffffffffffffffffffffffffff1673ffffffffffffffffffffffffffffffffffffffff168152602001600182018054610f2190614238565b80601f0160208091040260200160405190810160405280929190818152602001828054610f4d90614238565b8015610f9a5780601f10610f6f57610100808354040283529160200191610f9a565b820191906000526020600020905b815481529060010190602001808311610f7d57829003601f168201915b50505050508152602001600282018054610fb390614238565b80601f0160208091040260200160405190810160405280929190818152602001828054610fdf90614238565b801561102c5780601f106110015761010080835404028352916020019161102c565b820191906000526020600020905b81548152906001019060200180831161100f57829003601f168201915b5050505050815250509050919050565b606060008080600061104e600a6134b8565b9050600092505b808310156110e9578573ffffffffffffffffffffffffffffffffffffffff166009600085815260200190815260200160002060010160009054906101000a900473ffffffffffffffffffffffffffffffffffffffff1673ffffffffffffffffffffffffffffffffffffffff1614156110d65783806110d290614299565b9450505b82806110e190614299565b935050611055565b60008467ffffffffffffffff811115611105576111046142e2565b5b60405190808252806020026020018201604052801561113e57816020015b61112b6134c6565b8152602001906001900390816111235790505b509050600093505b81841015611325578673ffffffffffffffffffffffffffffffffffffffff166009600086815260200190815260200160002060010160009054906101000a900473ffffffffffffffffffffffffffffffffffffffff1673ffffffffffffffffffffffffffffffffffffffff16141561131257600960008581526020019081526020016000206040518060e0016040529081600082015481526020016001820160009054906101000a900473ffffffffffffffffffffffffffffffffffffffff1673ffffffffffffffffffffffffffffffffffffffff1673ffffffffffffffffffffffffffffffffffffffff1681526020016002820160009054906101000a900473ffffffffffffffffffffffffffffffffffffffff1673ffffffffffffffffffffffffffffffffffffffff1673ffffffffffffffffffffffffffffffffffffffff1681526020016003820154815260200160048201548152602001600582015481526020016006820160009054906101000a900460ff1660038111156112cf576112ce61370f565b5b60038111156112e1576112e061370f565b5b815250508184815181106112f8576112f7614311565b5b6020026020010181905250828061130e90614299565b9350505b838061131d90614299565b945050611146565b8095505050505050919050565b60036020528060005260406000206000915090508060000160009054906101000a900473ffffffffffffffffffffffffffffffffffffffff169080600101805461137b90614238565b80601f01602080910402602001604051908101604052809291908181526020018280546113a790614238565b80156113f45780601f106113c9576101008083540402835291602001916113f4565b820191906000526020600020905b8154815290600101906020018083116113d757829003601f168201915b50505050509080600201805461140990614238565b80601f016020809104026020016040519081016040528092919081815260200182805461143590614238565b80156114825780601f1061145757610100808354040283529160200191611482565b820191906000526020600020905b81548152906001019060200180831161146557829003601f168201915b5050505050905083565b600b60205281600052604060002081815481106114a857600080fd5b90600052602060002001600091509150505481565b60003390506000349050600073ffffffffffffffffffffffffffffffffffffffff16600660008473ffffffffffffffffffffffffffffffffffffffff1673ffffffffffffffffffffffffffffffffffffffff16815260200190815260200160002060000160009054906101000a900473ffffffffffffffffffffffffffffffffffffffff1673ffffffffffffffffffffffffffffffffffffffff161415611599576040517f08c379a00000000000000000000000000000000000000000000000000000000081526004016115909061438c565b60405180910390fd5b600073ffffffffffffffffffffffffffffffffffffffff16600360008673ffffffffffffffffffffffffffffffffffffffff1673ffffffffffffffffffffffffffffffffffffffff16815260200190815260200160002060000160009054906101000a900473ffffffffffffffffffffffffffffffffffffffff1673ffffffffffffffffffffffffffffffffffffffff16141561166b576040517f08c379a0000000000000000000000000000000000000000000000000000000008152600401611662906143f8565b60405180910390fd5b60008110156116af576040517f08c379a00000000000000000000000000000000000000000000000000000000081526004016116a69061448a565b60405180910390fd5b670de0b6b3a764000060025460646116c791906144aa565b670de0b6b3a76400008360646116dd9190614500565b6116e79190614500565b6116f19190614589565b6116fb9190614589565b905060006040518060e00160405280611714600a6134b8565b81526020018673ffffffffffffffffffffffffffffffffffffffff1681526020018473ffffffffffffffffffffffffffffffffffffffff168152602001838152602001428152602001858152602001600060038111156117775761177661370f565b5b81525090506000611788600a6134b8565b905081600960008381526020019081526020016000206000820151816000015560208201518160010160006101000a81548173ffffffffffffffffffffffffffffffffffffffff021916908373ffffffffffffffffffffffffffffffffffffffff16021790555060408201518160020160006101000a81548173ffffffffffffffffffffffffffffffffffffffff021916908373ffffffffffffffffffffffffffffffffffffffff160217905550606082015181600301556080820151816004015560a0820151816005015560c08201518160060160006101000a81548160ff0219169083600381111561187f5761187e61370f565b5b0217905550905050600b60008573ffffffffffffffffffffffffffffffffffffffff1673ffffffffffffffffffffffffffffffffffffffff168152602001908152602001600020819080600181540180825580915050600190039060005260206000200160009091909190915055600c60008773ffffffffffffffffffffffffffffffffffffffff1673ffffffffffffffffffffffffffffffffffffffff16815260200190815260200160002081908060018154018082558091505060019003906000526020600020016000909190919091505561195d600a6134a2565b7f5f1c67a4567ebc365d6a9ce0622c51e2fff9198c740d4fb8b5af2d4b4b2852af868585426040516119929493929190614619565b60405180910390a1505050505050565b80600160038111156119b7576119b661370f565b5b6009600083815260200190815260200160002060060160009054906101000a900460ff1660038111156119ed576119ec61370f565b5b1415611a2e576040517f08c379a0000000000000000000000000000000000000000000000000000000008152600401611a25906146aa565b60405180910390fd5b6000600960008481526020019081526020016000206040518060e0016040529081600082015481526020016001820160009054906101000a900473ffffffffffffffffffffffffffffffffffffffff1673ffffffffffffffffffffffffffffffffffffffff1673ffffffffffffffffffffffffffffffffffffffff1681526020016002820160009054906101000a900473ffffffffffffffffffffffffffffffffffffffff1673ffffffffffffffffffffffffffffffffffffffff1673ffffffffffffffffffffffffffffffffffffffff1681526020016003820154815260200160048201548152602001600582015481526020016006820160009054906101000a900460ff166003811115611b4757611b4661370f565b5b6003811115611b5957611b5861370f565b5b815250509050600073ffffffffffffffffffffffffffffffffffffffff16816020015173ffffffffffffffffffffffffffffffffffffffff161415611bd3576040517f08c379a0000000000000000000000000000000000000000000000000000000008152600401611bca90614716565b60405180910390fd5b3373ffffffffffffffffffffffffffffffffffffffff16816020015173ffffffffffffffffffffffffffffffffffffffff1614611c45576040517f08c379a0000000000000000000000000000000000000000000000000000000008152600401611c3c906147a8565b60405180910390fd5b60026003811115611c5957611c5861370f565b5b8160c001516003811115611c7057611c6f61370f565b5b14611cb0576040517f08c379a0000000000000000000000000000000000000000000000000000000008152600401611ca79061483a565b60405180910390fd5b600380811115611cc357611cc261370f565b5b8160c001516003811115611cda57611cd961370f565b5b1415611d1b576040517f08c379a0000000000000000000000000000000000000000000000000000000008152600401611d12906148a6565b60405180910390fd5b3373ffffffffffffffffffffffffffffffffffffffff166108fc82606001519081150290604051600060405180830381858888f19350505050158015611d65573d6000803e3d6000fd5b50600380811115611d7957611d7861370f565b5b6009600085815260200190815260200160002060060160009054906101000a900460ff166003811115611daf57611dae61370f565b5b5050505050565b60606000611dc460076134b8565b905060008167ffffffffffffffff811115611de257611de16142e2565b5b604051908082528060200260200182016040528015611e1b57816020015b611e086135c7565b815260200190600190039081611e005790505b50905060005b8281101561206357600060086000600184611e3c91906144aa565b815260200190815260200160002060009054906101000a900473ffffffffffffffffffffffffffffffffffffffff169050600660008273ffffffffffffffffffffffffffffffffffffffff1673ffffffffffffffffffffffffffffffffffffffff1681526020019081526020016000206040518060600160405290816000820160009054906101000a900473ffffffffffffffffffffffffffffffffffffffff1673ffffffffffffffffffffffffffffffffffffffff1673ffffffffffffffffffffffffffffffffffffffff168152602001600182018054611f1d90614238565b80601f0160208091040260200160405190810160405280929190818152602001828054611f4990614238565b8015611f965780601f10611f6b57610100808354040283529160200191611f96565b820191906000526020600020905b815481529060010190602001808311611f7957829003601f168201915b50505050508152602001600282018054611faf90614238565b80601f0160208091040260200160405190810160405280929190818152602001828054611fdb90614238565b80156120285780601f10611ffd57610100808354040283529160200191612028565b820191906000526020600020905b81548152906001019060200180831161200b57829003601f168201915b50505050508152505083838151811061204457612043614311565b5b602002602001018190525050808061205b90614299565b915050611e21565b81935050505090565b60066020528060005260406000206000915090508060000160009054906101000a900473ffffffffffffffffffffffffffffffffffffffff16908060010180546120b590614238565b80601f01602080910402602001604051908101604052809291908181526020018280546120e190614238565b801561212e5780601f106121035761010080835404028352916020019161212e565b820191906000526020600020905b81548152906001019060200180831161211157829003601f168201915b50505050509080600201805461214390614238565b80601f016020809104026020016040519081016040528092919081815260200182805461216f90614238565b80156121bc5780601f10612191576101008083540402835291602001916121bc565b820191906000526020600020905b81548152906001019060200180831161219f57829003601f168201915b5050505050905083565b60048060000154905081565b606060006121e060046134b8565b905060008167ffffffffffffffff8111156121fe576121fd6142e2565b5b60405190808252806020026020018201604052801561223757816020015b6122246135fe565b81526020019060019003908161221c5790505b50905060005b8281101561247f5760006005600060018461225891906144aa565b815260200190815260200160002060009054906101000a900473ffffffffffffffffffffffffffffffffffffffff169050600360008273ffffffffffffffffffffffffffffffffffffffff1673ffffffffffffffffffffffffffffffffffffffff1681526020019081526020016000206040518060600160405290816000820160009054906101000a900473ffffffffffffffffffffffffffffffffffffffff1673ffffffffffffffffffffffffffffffffffffffff1673ffffffffffffffffffffffffffffffffffffffff16815260200160018201805461233990614238565b80601f016020809104026020016040519081016040528092919081815260200182805461236590614238565b80156123b25780601f10612387576101008083540402835291602001916123b2565b820191906000526020600020905b81548152906001019060200180831161239557829003601f168201915b505050505081526020016002820180546123cb90614238565b80601f01602080910402602001604051908101604052809291908181526020018280546123f790614238565b80156124445780601f1061241957610100808354040283529160200191612444565b820191906000526020600020905b81548152906001019060200180831161242757829003601f168201915b5050505050815250508383815181106124605761245f614311565b5b602002602001018190525050808061247790614299565b91505061223d565b81935050505090565b806009600082815260200190815260200160002060020160009054906101000a900473ffffffffffffffffffffffffffffffffffffffff1673ffffffffffffffffffffffffffffffffffffffff163373ffffffffffffffffffffffffffffffffffffffff161461252d576040517f08c379a000000000000000000000000000000000000000000000000000000000815260040161252490614912565b60405180910390fd5b6000600960008481526020019081526020016000206040518060e0016040529081600082015481526020016001820160009054906101000a900473ffffffffffffffffffffffffffffffffffffffff1673ffffffffffffffffffffffffffffffffffffffff1673ffffffffffffffffffffffffffffffffffffffff1681526020016002820160009054906101000a900473ffffffffffffffffffffffffffffffffffffffff1673ffffffffffffffffffffffffffffffffffffffff1673ffffffffffffffffffffffffffffffffffffffff1681526020016003820154815260200160048201548152602001600582015481526020016006820160009054906101000a900460ff1660038111156126465761264561370f565b5b60038111156126585761265761370f565b5b815250509050600073ffffffffffffffffffffffffffffffffffffffff16816040015173ffffffffffffffffffffffffffffffffffffffff1614156126d2576040517f08c379a00000000000000000000000000000000000000000000000000000000081526004016126c990614716565b60405180910390fd5b600260038111156126e6576126e561370f565b5b8160c0015160038111156126fd576126fc61370f565b5b1415801561273457506001600381111561271a5761271961370f565b5b8160c0015160038111156127315761273061370f565b5b14155b612773576040517f08c379a000000000000000000000000000000000000000000000000000000000815260040161276a906149a4565b60405180910390fd5b3373ffffffffffffffffffffffffffffffffffffffff166108fc82606001519081150290604051600060405180830381858888f193505050501580156127bd573d6000803e3d6000fd5b506003808111156127d1576127d061370f565b5b6009600085815260200190815260200160002060060160009054906101000a900460ff1660038111156128075761280661370f565b5b5050505050565b6128166135fe565b600360008373ffffffffffffffffffffffffffffffffffffffff1673ffffffffffffffffffffffffffffffffffffffff1681526020019081526020016000206040518060600160405290816000820160009054906101000a900473ffffffffffffffffffffffffffffffffffffffff1673ffffffffffffffffffffffffffffffffffffffff1673ffffffffffffffffffffffffffffffffffffffff1681526020016001820180546128c690614238565b80601f01602080910402602001604051908101604052809291908181526020018280546128f290614238565b801561293f5780601f106129145761010080835404028352916020019161293f565b820191906000526020600020905b81548152906001019060200180831161292257829003601f168201915b5050505050815260200160028201805461295890614238565b80601f016020809104026020016040519081016040528092919081815260200182805461298490614238565b80156129d15780601f106129a6576101008083540402835291602001916129d1565b820191906000526020600020905b8154815290600101906020018083116129b457829003601f168201915b5050505050815250509050919050565b600073ffffffffffffffffffffffffffffffffffffffff16600660003373ffffffffffffffffffffffffffffffffffffffff1673ffffffffffffffffffffffffffffffffffffffff16815260200190815260200160002060000160009054906101000a900473ffffffffffffffffffffffffffffffffffffffff1673ffffffffffffffffffffffffffffffffffffffff1614612ab2576040517f08c379a0000000000000000000000000000000000000000000000000000000008152600401612aa990614a36565b60405180910390fd5b60405180606001604052803373ffffffffffffffffffffffffffffffffffffffff16815260200185858080601f016020809104026020016040519081016040528093929190818152602001838380828437600081840152601f19601f82011690508083019250505050505050815260200183838080601f016020809104026020016040519081016040528093929190818152602001838380828437600081840152601f19601f82011690508083019250505050505050815250600660003373ffffffffffffffffffffffffffffffffffffffff1673ffffffffffffffffffffffffffffffffffffffff16815260200190815260200160002060008201518160000160006101000a81548173ffffffffffffffffffffffffffffffffffffffff021916908373ffffffffffffffffffffffffffffffffffffffff1602179055506020820151816001019080519060200190612c0d929190613541565b506040820151816002019080519060200190612c2a929190613541565b50905050612c3860076134a2565b6000612c4460076134b8565b9050336008600083815260200190815260200160002060006101000a81548173ffffffffffffffffffffffffffffffffffffffff021916908373ffffffffffffffffffffffffffffffffffffffff1602179055505050505050565b60078060000154905081565b6060600080806000612cbd600a6134b8565b9050600092505b80831015612d58578573ffffffffffffffffffffffffffffffffffffffff166009600085815260200190815260200160002060020160009054906101000a900473ffffffffffffffffffffffffffffffffffffffff1673ffffffffffffffffffffffffffffffffffffffff161415612d45578380612d4190614299565b9450505b8280612d5090614299565b935050612cc4565b60008467ffffffffffffffff811115612d7457612d736142e2565b5b604051908082528060200260200182016040528015612dad57816020015b612d9a6134c6565b815260200190600190039081612d925790505b509050600093505b81841015612f94578673ffffffffffffffffffffffffffffffffffffffff166009600086815260200190815260200160002060020160009054906101000a900473ffffffffffffffffffffffffffffffffffffffff1673ffffffffffffffffffffffffffffffffffffffff161415612f8157600960008581526020019081526020016000206040518060e0016040529081600082015481526020016001820160009054906101000a900473ffffffffffffffffffffffffffffffffffffffff1673ffffffffffffffffffffffffffffffffffffffff1673ffffffffffffffffffffffffffffffffffffffff1681526020016002820160009054906101000a900473ffffffffffffffffffffffffffffffffffffffff1673ffffffffffffffffffffffffffffffffffffffff1673ffffffffffffffffffffffffffffffffffffffff1681526020016003820154815260200160048201548152602001600582015481526020016006820160009054906101000a900460ff166003811115612f3e57612f3d61370f565b5b6003811115612f5057612f4f61370f565b5b81525050818481518110612f6757612f66614311565b5b60200260200101819052508280612f7d90614299565b9350505b8380612f8c90614299565b945050612db5565b8095505050505050919050565b806009600082815260200190815260200160002060020160009054906101000a900473ffffffffffffffffffffffffffffffffffffffff1673ffffffffffffffffffffffffffffffffffffffff163373ffffffffffffffffffffffffffffffffffffffff1614613046576040517f08c379a000000000000000000000000000000000000000000000000000000000815260040161303d90614912565b60405180910390fd5b816001600381111561305b5761305a61370f565b5b6009600083815260200190815260200160002060060160009054906101000a900460ff1660038111156130915761309061370f565b5b14156130d2576040517f08c379a00000000000000000000000000000000000000000000000000000000081526004016130c9906146aa565b60405180910390fd5b600060038111156130e6576130e561370f565b5b6009600085815260200190815260200160002060060160009054906101000a900460ff16600381111561311c5761311b61370f565b5b1461315c576040517f08c379a000000000000000000000000000000000000000000000000000000000815260040161315390614ac8565b60405180910390fd5b60016009600085815260200190815260200160002060060160006101000a81548160ff021916908360038111156131965761319561370f565b5b02179055507f5fa7675bf8f7b663239eaf86ef20f00dca2eae6c4eb74759cde508d86c76ddd86009600085815260200190815260200160002060010160009054906101000a900473ffffffffffffffffffffffffffffffffffffffff166009600086815260200190815260200160002060020160009054906101000a900473ffffffffffffffffffffffffffffffffffffffff16600960008781526020019081526020016000206003015460096000888152602001908152602001600020600401544260405161326a959493929190614ae8565b60405180910390a1505050565b60025481565b600160009054906101000a900473ffffffffffffffffffffffffffffffffffffffff1681565b806009600082815260200190815260200160002060020160009054906101000a900473ffffffffffffffffffffffffffffffffffffffff1673ffffffffffffffffffffffffffffffffffffffff163373ffffffffffffffffffffffffffffffffffffffff1614613348576040517f08c379a000000000000000000000000000000000000000000000000000000000815260040161333f90614912565b60405180910390fd5b816001600381111561335d5761335c61370f565b5b6009600083815260200190815260200160002060060160009054906101000a900460ff1660038111156133935761339261370f565b5b14156133d4576040517f08c379a00000000000000000000000000000000000000000000000000000000081526004016133cb906146aa565b60405180910390fd5b600060038111156133e8576133e761370f565b5b6009600085815260200190815260200160002060060160009054906101000a900460ff16600381111561341e5761341d61370f565b5b1461345e576040517f08c379a000000000000000000000000000000000000000000000000000000000815260040161345590614bad565b60405180910390fd5b60026009600085815260200190815260200160002060060160006101000a81548160ff021916908360038111156134985761349761370f565b5b0217905550505050565b6001816000016000828254019250508190555050565b600081600001549050919050565b6040518060e0016040528060008152602001600073ffffffffffffffffffffffffffffffffffffffff168152602001600073ffffffffffffffffffffffffffffffffffffffff1681526020016000815260200160008152602001600081526020016000600381111561353b5761353a61370f565b5b81525090565b82805461354d90614238565b90600052602060002090601f01602090048101928261356f57600085556135b6565b82601f1061358857805160ff19168380011785556135b6565b828001600101855582156135b6579182015b828111156135b557825182559160200191906001019061359a565b5b5090506135c39190613635565b5090565b6040518060600160405280600073ffffffffffffffffffffffffffffffffffffffff16815260200160608152602001606081525090565b6040518060600160405280600073ffffffffffffffffffffffffffffffffffffffff16815260200160608152602001606081525090565b5b8082111561364e576000816000905550600101613636565b5090565b600080fd5b600080fd5b6000819050919050565b61366f8161365c565b811461367a57600080fd5b50565b60008135905061368c81613666565b92915050565b6000602082840312156136a8576136a7613652565b5b60006136b68482850161367d565b91505092915050565b6136c88161365c565b82525050565b600073ffffffffffffffffffffffffffffffffffffffff82169050919050565b60006136f9826136ce565b9050919050565b613709816136ee565b82525050565b7f4e487b7100000000000000000000000000000000000000000000000000000000600052602160045260246000fd5b6004811061374f5761374e61370f565b5b50565b60008190506137608261373e565b919050565b600061377082613752565b9050919050565b61378081613765565b82525050565b600060e08201905061379b600083018a6136bf565b6137a86020830189613700565b6137b56040830188613700565b6137c260608301876136bf565b6137cf60808301866136bf565b6137dc60a08301856136bf565b6137e960c0830184613777565b98975050505050505050565b6137fe816136ee565b811461380957600080fd5b50565b60008135905061381b816137f5565b92915050565b6000806040838503121561383857613837613652565b5b60006138468582860161380c565b92505060206138578582860161367d565b9150509250929050565b600060208201905061387660008301846136bf565b92915050565b6138858161365c565b82525050565b613894816136ee565b82525050565b6138a381613765565b82525050565b60e0820160008201516138bf600085018261387c565b5060208201516138d2602085018261388b565b5060408201516138e5604085018261388b565b5060608201516138f8606085018261387c565b50608082015161390b608085018261387c565b5060a082015161391e60a085018261387c565b5060c082015161393160c085018261389a565b50505050565b600060e08201905061394c60008301846138a9565b92915050565b60006020820190506139676000830184613700565b92915050565b600080fd5b600080fd5b600080fd5b60008083601f8401126139925761399161396d565b5b8235905067ffffffffffffffff8111156139af576139ae613972565b5b6020830191508360018202830111156139cb576139ca613977565b5b9250929050565b600080600080604085870312156139ec576139eb613652565b5b600085013567ffffffffffffffff811115613a0a57613a09613657565b5b613a168782880161397c565b9450945050602085013567ffffffffffffffff811115613a3957613a38613657565b5b613a458782880161397c565b925092505092959194509250565b600060208284031215613a6957613a68613652565b5b6000613a778482850161380c565b91505092915050565b6000613a8b826136ce565b9050919050565b613a9b81613a80565b82525050565b600081519050919050565b600082825260208201905092915050565b60005b83811015613adb578082015181840152602081019050613ac0565b83811115613aea576000848401525b50505050565b6000601f19601f8301169050919050565b6000613b0c82613aa1565b613b168185613aac565b9350613b26818560208601613abd565b613b2f81613af0565b840191505092915050565b6000606083016000830151613b526000860182613a92565b5060208301518482036020860152613b6a8282613b01565b91505060408301518482036040860152613b848282613b01565b9150508091505092915050565b60006020820190508181036000830152613bab8184613b3a565b905092915050565b600081519050919050565b600082825260208201905092915050565b6000819050602082019050919050565b60e082016000820151613bf5600085018261387c565b506020820151613c08602085018261388b565b506040820151613c1b604085018261388b565b506060820151613c2e606085018261387c565b506080820151613c41608085018261387c565b5060a0820151613c5460a085018261387c565b5060c0820151613c6760c085018261389a565b50505050565b6000613c798383613bdf565b60e08301905092915050565b6000602082019050919050565b6000613c9d82613bb3565b613ca78185613bbe565b9350613cb283613bcf565b8060005b83811015613ce3578151613cca8882613c6d565b9750613cd583613c85565b925050600181019050613cb6565b5085935050505092915050565b60006020820190508181036000830152613d0a8184613c92565b905092915050565b613d1b81613a80565b82525050565b600082825260208201905092915050565b6000613d3d82613aa1565b613d478185613d21565b9350613d57818560208601613abd565b613d6081613af0565b840191505092915050565b6000606082019050613d806000830186613d12565b8181036020830152613d928185613d32565b90508181036040830152613da68184613d32565b9050949350505050565b613db981613a80565b8114613dc457600080fd5b50565b600081359050613dd681613db0565b92915050565b60008060408385031215613df357613df2613652565b5b6000613e0185828601613dc7565b9250506020613e128582860161367d565b9150509250929050565b600081519050919050565b600082825260208201905092915050565b6000819050602082019050919050565b6000606083016000830151613e606000860182613a92565b5060208301518482036020860152613e788282613b01565b91505060408301518482036040860152613e928282613b01565b9150508091505092915050565b6000613eab8383613e48565b905092915050565b6000602082019050919050565b6000613ecb82613e1c565b613ed58185613e27565b935083602082028501613ee785613e38565b8060005b85811015613f235784840389528151613f048582613e9f565b9450613f0f83613eb3565b925060208a01995050600181019050613eeb565b50829750879550505050505092915050565b60006020820190508181036000830152613f4f8184613ec0565b905092915050565b600081519050919050565b600082825260208201905092915050565b6000819050602082019050919050565b6000606083016000830151613f9b6000860182613a92565b5060208301518482036020860152613fb38282613b01565b91505060408301518482036040860152613fcd8282613b01565b9150508091505092915050565b6000613fe68383613f83565b905092915050565b6000602082019050919050565b600061400682613f57565b6140108185613f62565b93508360208202850161402285613f73565b8060005b8581101561405e578484038952815161403f8582613fda565b945061404a83613fee565b925060208a01995050600181019050614026565b50829750879550505050505092915050565b6000602082019050818103600083015261408a8184613ffb565b905092915050565b60006060830160008301516140aa6000860182613a92565b50602083015184820360208601526140c28282613b01565b915050604083015184820360408601526140dc8282613b01565b9150508091505092915050565b600060208201905081810360008301526141038184614092565b905092915050565b7f4e6f20726967687420746f2076696577207468697320646f63756d656e740000600082015250565b6000614141601e83613d21565b915061414c8261410b565b602082019050919050565b6000602082019050818103600083015261417081614134565b9050919050565b7f412073656c6c657220776974682074686973206164647265737320686173206160008201527f6c7265616479206265656e207265676973746572656400000000000000000000602082015250565b60006141d3603683613d21565b91506141de82614177565b604082019050919050565b60006020820190508181036000830152614202816141c6565b9050919050565b7f4e487b7100000000000000000000000000000000000000000000000000000000600052602260045260246000fd5b6000600282049050600182168061425057607f821691505b6020821081141561426457614263614209565b5b50919050565b7f4e487b7100000000000000000000000000000000000000000000000000000000600052601160045260246000fd5b60006142a48261365c565b91507fffffffffffffffffffffffffffffffffffffffffffffffffffffffffffffffff8214156142d7576142d661426a565b5b600182019050919050565b7f4e487b7100000000000000000000000000000000000000000000000000000000600052604160045260246000fd5b7f4e487b7100000000000000000000000000000000000000000000000000000000600052603260045260246000fd5b7f4e6f742061207265676973746572656420627579657200000000000000000000600082015250565b6000614376601683613d21565b915061438182614340565b602082019050919050565b600060208201905081810360008301526143a581614369565b9050919050565b7f4e6f74206120726567697374657265642073656c6c6572000000000000000000600082015250565b60006143e2601783613d21565b91506143ed826143ac565b602082019050919050565b60006020820190508181036000830152614411816143d5565b9050919050565b7f457363726f772076616c75652073686f756c642062652067726561746572207460008201527f68616e207a65726f000000000000000000000000000000000000000000000000602082015250565b6000614474602883613d21565b915061447f82614418565b604082019050919050565b600060208201905081810360008301526144a381614467565b9050919050565b60006144b58261365c565b91506144c08361365c565b9250827fffffffffffffffffffffffffffffffffffffffffffffffffffffffffffffffff038211156144f5576144f461426a565b5b828201905092915050565b600061450b8261365c565b91506145168361365c565b9250817fffffffffffffffffffffffffffffffffffffffffffffffffffffffffffffffff048311821515161561454f5761454e61426a565b5b828202905092915050565b7f4e487b7100000000000000000000000000000000000000000000000000000000600052601260045260246000fd5b60006145948261365c565b915061459f8361365c565b9250826145af576145ae61455a565b5b828204905092915050565b6000819050919050565b60006145df6145da6145d5846136ce565b6145ba565b6136ce565b9050919050565b60006145f1826145c4565b9050919050565b6000614603826145e6565b9050919050565b614613816145f8565b82525050565b600060808201905061462e600083018761460a565b61463b6020830186613700565b61464860408301856136bf565b61465560608301846136bf565b95945050505050565b7f54686520657363726f772069732063616e63656c6c6564000000000000000000600082015250565b6000614694601783613d21565b915061469f8261465e565b602082019050919050565b600060208201905081810360008301526146c381614687565b9050919050565b7f5468697320657363726f7720646f6573206e6f74206578697374000000000000600082015250565b6000614700601a83613d21565b915061470b826146ca565b602082019050919050565b6000602082019050818103600083015261472f816146f3565b9050919050565b7f596f7520617265206e6f74207468652073656c6c657220696e2074686973206560008201527f7363726f77000000000000000000000000000000000000000000000000000000602082015250565b6000614792602583613d21565b915061479d82614736565b604082019050919050565b600060208201905081810360008301526147c181614785565b9050919050565b7f5468652064656c697665727920686173206e6f7420796574206265656e20636f60008201527f6e6669726d656400000000000000000000000000000000000000000000000000602082015250565b6000614824602783613d21565b915061482f826147c8565b604082019050919050565b6000602082019050818103600083015261485381614817565b9050919050565b7f54686520657363726f7720697320616c726561647920636f6d706c6574650000600082015250565b6000614890601e83613d21565b915061489b8261485a565b602082019050919050565b600060208201905081810360008301526148bf81614883565b9050919050565b7f4e6f7420746865206275796572206f66207468697320657363726f7700000000600082015250565b60006148fc601c83613d21565b9150614907826148c6565b602082019050919050565b6000602082019050818103600083015261492b816148ef565b9050919050565b7f596f752063616e6e6f742077697468647261772066756e64732061742074686960008201527f7320737461676500000000000000000000000000000000000000000000000000602082015250565b600061498e602783613d21565b915061499982614932565b604082019050919050565b600060208201905081810360008301526149bd81614981565b9050919050565b7f412062757965722077697468207468697320616464726573732068617320616c60008201527f7265616479206265656e20726567697374657265640000000000000000000000602082015250565b6000614a20603583613d21565b9150614a2b826149c4565b604082019050919050565b60006020820190508181036000830152614a4f81614a13565b9050919050565b7f54686520676f6f6473202f2073657276696365206861766520616c726561647960008201527f206265656e2064656c6976657265640000000000000000000000000000000000602082015250565b6000614ab2602f83613d21565b9150614abd82614a56565b604082019050919050565b60006020820190508181036000830152614ae181614aa5565b9050919050565b600060a082019050614afd6000830188613700565b614b0a6020830187613700565b614b1760408301866136bf565b614b2460608301856136bf565b614b3160808301846136bf565b9695505050505050565b7f54686520657363726f772068617320616c7265616479206265656e2064656c6960008201527f7665726564000000000000000000000000000000000000000000000000000000602082015250565b6000614b97602583613d21565b9150614ba282614b3b565b604082019050919050565b60006020820190508181036000830152614bc681614b8a565b905091905056fea2646970667358221220bd5802d291505ffdda165ba8c362d3c98d0ea5ec1474cba87cd363a68acebf8064736f6c63430008090033",
  "linkReferences": {},
  "deployedLinkReferences": {}
}